:020000040000FA
:02000000FE2FD1
:100EC200831203138601831603138601831203130D
:100ED2008501831603138501831203130510851000
:100EE20005158515061206108614061186111A308C
:100EF200F2005E30F1006E30F000F00B7E2FF10B4D
:100F02007E2FF20B7E2F000083120313051085142F
:100F12000511851506120610861406118611063073
:100F2200F2001330F100AD30F000F00B962FF10B10
:100F3200962FF20B962F9D2F831203130514851003
:100F420005118511061206148614061186111A302F
:100F5200F2005E30F1006E30F000F00BAE2FF10BBC
:100F6200AE2FF20BAE2F000083120313051485106F
:100F72000511851106160610861406118611063013
:100F8200F2001330F100AD30F000F00BC62FF10B80
:100F9200C62FF20BC62FCD2F831203130514851013
:100FA20005118515061206108610061186151A30CF
:100FB200F2005E30F1006E30F000F00BDE2FF10B2C
:100FC200DE2FF20BDE2F00008312031305148510AF
:100FD20005118515061206108610061586110630B3
:100FE200F2001330F100AD30F000F00BF62FF10BF0
:0E0FF200F62FF20BF62FFD2F6D2F8301612FCE
:02400E0018FF99
:00000001FF
