:020000040000FA
:10000000FE2F00308A000408840A820700343F343F
:1000100006345B344F3466346D347D3407347F34BA
:020020006F343B
:100E520070037104031D4C2F0930F5000030F600B9
:100E62007508013E840001208312031386000330BB
:100E7200F4000830F3007730F200F20B3E2FF30B50
:100E82003E2FF40B3E2FFF30F5070318F60AFF3012
:100E9200F607F61F312F7608803AFF0080307F0276
:100EA200031D552F0A30750203180800292F8316D7
:100EB200031386018312031386018501831603132C
:100EC2008501013084000120831203138600892FDB
:100ED2008230F800DD30F700F70B6D2FF80B6D2F25
:100EE200722F831203138519862F0514851005119D
:100EF200031005180314003003180130F700F8013D
:100F02007708F0007808F10029278312031385156A
:100F120083120313851D692F83120313851D892FE5
:100F22000330F9008A30F8005530F700F70B972F9D
:100F3200F80B972FF90B972F9E2F0A308400012070
:100F42008312031386000510851005150B30F90076
:100F52002630F8005D30F700F70BAD2FF80BAD2F00
:100F6200F90BAD2FB42F83120313851D892F0510A2
:100F720085140511851D892F1530F9004B30F800B5
:100F8200BE30F700F70BC32FF80BC32FF90BC32F9B
:100F9200000083120313851D892F05148510051186
:100FA200051CF22F0930FA000030FB007A08013EDE
:100FB200840001208312031386000330F9000830F5
:100FC200F8007730F700F70BE42FF80BE42FF90B5A
:100FD200E42FFF30FA070318FB0AFF30FB07FB1F61
:100FE200D72F7B08803AFF0080307F02031DFB2F42
:0E0FF2000A307A020318892F8D2F8301582FA1
:02400E0018FF99
:00000001FF
